:100000000C94F8000C9420010C9420010C94200115
:100010000C9420010C9420010C9420010C942001DC
:100020000C9420010C9420010C9420010C942001CC
:100030000C9420010C9420010C9420010C942001BC
:100040000C949B260C9420010C9469260C94432656
:100050000C9420010C9420010C9420010C9420019C
:100060000C9420010C94200100407A10F35A00A057
:10007000724E18090010A5D4E80000E87648170071
:1000800000E40B54020000CA9A3B000000E1F505B1
:10009000000080969800000040420F000000A086FB
:1000A00001000000102700000000E803000000002D
:1000B0006400000000000A000000000001000000D1
:1000C00000002C76D888DC674F0823DFC1DFAE59EB
:1000D000E1B1B796E5E3E453C63AE651997696E87E
:1000E000E6C28426EB898C9B62ED407C6FFCEFBC02
:1000F0009C9F40F2BAA56FA5F490055A2AF75C932D
:100100006B6CF9676DC11BFCE0E40D47FEF520E662
:10011000B500D0ED902E0300943577050080841E45
:10012000080000204E0A000000C80C333333330FA0
:10013000986E12831141EF8D2114893BE65516CF3D
:10014000FEE6DB18D1844B381BF77C1D901DA4BB49
:10015000E424203284725E228100C9F124ECA1E5FE
:100160003D27000020410000C84200401C4620BC42
:10017000BE4CCA1B0E5AAEC59D74CDCCCC3D0AD721
:10018000233C17B7D13877CC2B329595E6241FB195
:100190004F0A00000000250028002B00000000008E
:1001A000240027002A000000000023002600290068
:1001B000040404040404040402020202020203030D
:1001C0000303030301020408102040800102040815
:1001D00010200102040810200000000800020100A5
:1001E000000304070000000000000000E5266F2C5B
:1001F00011241FBECFEFD8E0DEBFCDBF14E0A0E0DA
:10020000B1E0E4E4FFE602C005900D92A034B1072E
:10021000D9F725E0A0E4B4E001C01D92A63FB207E3
:10022000E1F710E0C7EFD0E004C02197FE010E9483
:100230009632C63FD107C9F70E9487270C9495379D
:100240000C9400008CBD9DBD089520E3FC0120832B
:100250003296862F82958F706F706A3030F4605DB1
:100260006293682F8111F5CF0895695CF9CFFC0185
:10027000818D928D089508950895DB0114964D9116
:100280005C9115976D917C91DC01ED91FC91028060
:10029000F381E02D0994AF92BF92CF92DF92EF925B
:1002A000FF920F931F93CF93DF936C017B018B0120
:1002B000040F151FEB015E01AE18BF08C017D10770
:1002C00059F06991D601ED91FC910190F081E02DFA
:1002D000C6010995892B79F7C501DF91CF911F914F
:1002E0000F91FF90EF90DF90CF90BF90AF90089567
:1002F000FC01538D448D252F30E0842F90E0821B2C
:10030000930B541710F0CF96089501970895FC01B0
:10031000918D828D981761F0A28DAE0FBF2FB11D08
:100320005D968C91928D9F5F9F73928F90E0089560
:100330008FEF9FEF0895FC01918D828D981731F01A
:10034000828DE80FF11D858D90E008958FEF9FEF6E
:100350000895FC01918D228D892F90E0805C9F4F44
:10036000821B91098F739927089584EF94E00E946E
:10037000A90121E0892B09F420E0822F089580E073
:1003800090E0892B29F00E94B50181110C940000A6
:100390000895FC01A48DA80FB92FB11DA35ABF4F1A
:1003A0002C91848D90E001968F739927848FA68974
:1003B000B7892C93A089B1898C91837080648C93C8
:1003C000938D848D981306C00288F389E02D808177
:1003D0008F7D80830895EF92FF920F931F93CF93A9
:1003E000DF93EC0181E0888F9B8D8C8D98131AC070
:1003F000E889F989808185FF15C09FB7F894EE8957
:10040000FF896083E889F9898081837080648083B3
:100410009FBF81E090E0DF91CF911F910F91FF90FE
:10042000EF900895F62E0B8D10E00F5F1F4F0F73A6
:100430001127E02E8C8D8E110CC00FB607FCFACF61
:10044000E889F989808185FFF5CFCE010E94C90135
:10045000F1CFEB8DEC0FFD2FF11DE35AFF4FF08232
:100460009FB7F8940B8FEA89FB8980818062CFCF98
:10047000CF93DF93EC01888D8823B9F0AA89BB89DB
:10048000E889F9898C9185FD03C0808186FD0DC0C6
:100490000FB607FCF7CF8C9185FFF2CF808185FFE7
:1004A000EDCFCE010E94C901E9CFDF91CF91089530
:1004B000833081F028F4813099F08230A9F00895DA
:1004C0008730A9F08830C9F08430B1F48091800081
:1004D0008F7D03C0809180008F7780938000089586
:1004E00084B58F7784BD089584B58F7DFBCF8091CF
:1004F000B0008F778093B00008958091B0008F7D19
:10050000F9CF1F93CF93DF93282F30E0F901E85202
:10051000FE4F8491F901EC53FE4FD491F901E0555F
:10052000FE4FC491CC23A9F0162F81110E945802CE
:10053000EC2FF0E0EE0FFF1FEE56FE4FA591B491A9
:100540008FB7F894EC91111108C0D095DE23DC939D
:100550008FBFDF91CF911F910895DE2BF8CFCF93FE
:10056000DF9390E0FC01EC53FE4F249180559E4FA9
:10057000FC0184918823D1F090E0880F991FFC0141
:10058000E456FE4FA591B491FC01EE56FE4FC59185
:10059000D491623071F49FB7F8943C91822F80958A
:1005A00083238C93E8812E2B28839FBFDF91CF91EB
:1005B00008958FB7F894EC912E2B2C938FBFF6CF24
:1005C0003FB7F89480914D0490914E04A0914F0450
:1005D000B091500426B5A89B05C02F3F19F0019695
:1005E000A11DB11D3FBFBA2FA92F982F8827BC018D
:1005F000CD01620F711D811D911D42E0660F771FB5
:10060000881F991F4A95D1F708952F923F924F92D4
:100610005F926F927F928F929F92AF92BF92CF9292
:10062000DF92EF92FF920F931F93CF93DF93C82F28
:10063000062F49015A010E94E0026B017C01D0E0C3
:10064000CE0188529E4F2C01FE01EC53FE4F3F011C
:10065000C055DE4F10E0F2018491F3013490FE01A9
:100660002490222029F181110E945802E22DF0E00D
:10067000EE0FFF1FEA55FE4FA591B4918C913822E1
:1006800031E020E009F430E0832F922F081719079A
:1006900091F40E94E0026C197D098E099F0986166B
:1006A0009706A806B906B8F660E070E0CB0109C06D
:1006B00090E080E0EBCF0E94E0026C197D098E098A
:1006C0009F09DF91CF911F910F91FF90EF90DF90E5
:1006D000CF90BF90AF909F908F907F906F905F90E2
:1006E0004F903F902F9008958F929F92AF92BF921C
:1006F000CF92DF92EF92FF924B015C010E94E002E9
:100700006B017C010E94E0026C197D098E099F0932
:10071000683E734081059105A8F321E0821A910893
:10072000A108B10888EEC80E83E0D81EE11CF11CB8
:1007300081149104A104B10429F7FF90EF90DF9098
:10074000CF90BF90AF909F908F9008952FB7F8945F
:100750006091490470914A0480914B0490914C043B
:100760002FBF08950F931F930E94A6036093FC046C
:100770007093FD048093FE049093FF0484EF94E053
:100780000E94870197FF1DC00E94A6030091FC04F0
:100790001091FD042091FE043091FF04601B710B49
:1007A000820B930B0091F8041091F9042091FA0444
:1007B0003091FB046017710782079307F8F28FEFFF
:1007C0009FEF1F910F910895FC0120812EBD9B0189
:1007D0002150310941F051810DB407FEFDCF4EB5D6
:1007E0005EBD4193F5CF61507109860F971F0DB41F
:1007F00007FEFDCF2EB5FC0120830895E091520441
:10080000F0915304808190915104892B8083089545
:10081000E0915204F09153049081809151048095AD
:100820008923808308958EBD00000DB407FEFDCF9F
:100830008EB50895AF92BF92CF92DF92EF92FF9262
:100840000F931F93CF93DF93CDB7DEB728970FB6E3
:10085000F894DEBF0FBECDBF8C017B016A01809191
:10086000F3048333E1F45801A40EB51EA016B106BB
:1008700009F46FC00E94080480EF0E941304812FC6
:100880000E941304802F0E9413040F5F1F4FF70173
:1008900081917F010E9413040E94FE03E7CF5B0158
:1008A000A40EB51E8433C1F40E94080419830A8380
:1008B0008D2D80688B83CC8264E070E0CE01019640
:1008C0000E94E403AE14BF0409F441C0F701819112
:1008D0007F010E941304F6CF0E9408040F3F110508
:1008E00009F028F419820A8384E08B830CC017FD79
:1008F00017C019820A8333E0169507953A95E1F7F8
:10090000007E0C600B8386E0C816D104A0F5F701C9
:10091000DE011496EA15FB0599F081918D93FACFCB
:10092000C80126E0969587952A95E1F7807E198380
:100930000A830115104C10F48461D7CF8C61D5CF98
:10094000B6016D5F7F4FCE0101960E94E4030E94C5
:10095000FE03C60128960FB6F894DEBF0FBECDBFCA
:10096000DF91CF911F910F91FF90EF90DF90CF908B
:10097000BF90AF90089563E070E0CE0101960E94B1
:10098000E403F70181917F010E941304AE14BF04B8
:10099000C1F7DDCFCF93DF931F92CDB7DEB7898349
:1009A00041E050E0BE016F5F7F4F90E080E00E9429
:1009B0001A040F90DF91CF91089590E02091F304F5
:1009C000233339F40C96982F990F990F990F80E0E3
:1009D00008954896F8CFDA01E0915504F0E0FE2F33
:1009E000EE27E60FF71F90E0982F8827A901BD0199
:1009F0008E0F9F1F0C941A04CF93DF9300D0CDB7B6
:100A0000DEB779836A8322E030E0AE014F5F5F4F4B
:100A100060E170E00E94EB040F900F90DF91CF91A6
:100A20000895CF93DF9300D0CDB7DEB779836A8383
:100A300022E030E0AE014F5F5F4F64E070E00E9463
:100A4000EB040F900F90DF91CF910895CF93DF9338
:100A50001F92CDB7DEB72091550430E0322F222708
:100A6000260F371F90E0982F8827498341E050E0F8
:100A7000BE016F5F7F4F820F931F0E941A040F9079
:100A8000DF91CF910895CF93DF931F92CDB7DEB75B
:100A90006983DC01ED91FC910280F381E02D41E05E
:100AA00050E0BE016F5F7F4F09950F90DF91CF91AE
:100AB0000895CF93DF931F92CDB7DEB76983DC0132
:100AC000ED91FC910280F381E02D41E050E0BE0108
:100AD0006F5F7F4F09950F90DF91CF910895FC01D3
:100AE0009485FB018485981303C081E0943008F05D
:100AF00080E00895CF93DF931F92CDB7DEB769836F
:100B0000DC01ED91FC910280F381E02D41E050E0A9
:100B1000BE016F5F7F4F09950F90DF91CF910895D0
:100B2000FC01768765870895DC01ED91FC91068CC8
:100B3000F78DE02D099591E089270895862F089576
:100B400081E08627089521E0FC018485843008F047
:100B500020E0822F08950895FF920F931F93CF9363
:100B6000DF93EB01FC01178A168A2A81211109C043
:100B70002B81211106C02C81211103C02D8122233C
:100B800001F141155105E9F08A01FC01F08C80E585
:100B900091E00E942201AE014E5F5F4F24E030E001
:100BA0006CE070E08F2D0E94EB04B8018F2D0E9445
:100BB000FC0481E090E0DF91CF911F910F91FF90B5
:100BC000089580E0F7CFFC01848595850895FC01A8
:100BD00084899589089526E831E0FC0131832083DA
:100BE000FB014089518962897389FC0142835383E7
:100BF000648375830895DC01ED91FC91048CF58D7F
:100C0000E02D0994982F80336CF08A3324F08F35CF
:100C100024F08B3724F481E0089581341CF081E0C6
:100C20009B350CF080E00895FC018685811114C08D
:100C3000A185B285838594852FEF3FEFA817B9076B
:100C400030F4CD010196928781872C9130E037FDF9
:100C500020E0258781E08687858508951F93CF93BF
:100C6000DF93EC01162F0E941406811306C01E8626
:100C700081E0DF91CF911F91089580E0FACF0F932B
:100C80001F93CF93DF938C01EB018991882369F047
:100C9000C8010E941406882379F0FE0131979081E3
:100CA00098130DC0F8011686F0CF90E080E0DF9138
:100CB000CF911F910F91089582E090E0F8CF83E0EB
:100CC00090E0F5CFCF93DF93EC01CE010E941406A4
:100CD0008B304CF489305CF4882359F081E08887AC
:100CE00090E080E00BC08D3011F08032B9F71E86A5
:100CF000ECCF8885811105C081E090E0DF91CF9134
:100D0000089582E090E0FACFFC0124813581A901A9
:100D10004F5F5F4F868197814817590748F482815A
:100D2000938155834483FC01E20FF31F6083089590
:100D30000190F081E02D81E0808708959F92AF922D
:100D4000BF92CF92DF92EF92FF920F931F93CF93B8
:100D5000DF9300D000D01F92CDB7DEB78C010E9488
:100D60001406D82ED8011E961C92F12CE12C60EFAF
:100D7000C62EC8010E941406F8011686D81609F47A
:100D8000B4C0811113C082E090E00F900F900F90DB
:100D90000F900F90DF91CF911F910F91FF90EF90E7
:100DA000DF90CF90BF90AF909F9008958C3509F061
:100DB0009AC0C8010E941406882329F3E8E9F1E0EB
:100DC000853709F084C0D8011E961C9254E0952EF8
:100DD000B12CA12CC8010E9414068823A1F28134F1
:100DE00034F48053803130F083E090E0CECF8F7DBB
:100DF0008753F8CF44E0AA0CBB1C4A95E1F7A82A18
:100E0000F80116869A949110E5CFC501985D811579
:100E1000944020F47501F3E0FF22ABCFC5019C5D47
:100E200081159440A8F483E0B822B701762F662795
:100E3000770F770F6A297B2990E080E00196603870
:100E400071058105910540F4C8010E94840691CF87
:100E5000B50190E080E0F3CF1982262F2F73206830
:100E60002A8326E096958795779567952A95D1F7F9
:100E70006032710580F4606C6B835E01A4E0AA0EA1
:100E8000B11CD5016E915D01662309F472CFC801D2
:100E90000E948406F6CF262F2F7320682B8386E0CE
:100EA000769567958A95E1F76031710538F4606E43
:100EB0006C835E01B5E0AB0EB11CE3CF60686C8360
:100EC000CD825E01E6E0AE0EB11CDBCF32969081A2
:100ED000992309F489CF8913F9CF8181882309F4F3
:100EE00083CFF8011686682FAFCF0190F081E02DF7
:100EF0008085882319F084E090E047CF90E080E07F
:100F000044CF4F925F926F927F928F929F92AF9257
:100F1000BF92CF92DF92EF92FF920F931F93CF93E6
:100F2000DF93EC018B0188818B32C9F18D32C1F5E1
:100F30002196FF24F394888190ED980F9A3018F051
:100F40008E3209F04DC160E070E0CB01FE012191CD
:100F5000A0ED8A2E820E39E0381520F16A3949E970
:100F60007407840749E1940738F5AAE0B0E09B01D3
:100F7000AC010E94FA30912CB12CA12C2401350136
:100F8000409450946094709446165706680679060B
:100F900098F0680D791D8A1D9B1DEF01D7CF219612
:100FA000F12CC9CF211108C0FF20F1F1613071058A
:100FB000810550E89507A0F0E12CEAE08E2E912CF7
:100FC000A12CB12C61157105F0E88F079105C0F1D6
:100FD000A50194010E944431CA01B901E394F2CF02
:100FE000F801248120782A6024839B01AC018827A2
:100FF0009927DC01821B930BA40BB50B8083918393
:10100000A283B3838F2DDF91CF911F910F91FF901A
:10101000EF90DF90CF90BF90AF909F908F907F9098
:101020006F905F904F900895F80124812078286098
:1010300024836083718382839383FF24F394E2CFBC
:10104000FE01299130ED320F3A3010F4E394F8CFDD
:101050002E32F1F4EF012196FE012196208150ED10
:10106000D52ED20E29E02D1598F06C3C3CEC730780
:101070003CE08307910580F7AAE0B0E09B01AC015A
:101080000E94FA306D0D711D811D911DEA94E4CF0F
:1010900020812F7DD0E0C0E0253409F05DC02181A2
:1010A0002D32D9F53296CC24C394DF01D0E0C0E0D4
:1010B0002E2D0E2C000C330B4AE0B42EFD01DD90DA
:1010C00040ED4D0D4A3008F042C0BC9EA001BD9ECF
:1010D000500D1124CD2DDD0CDD0BE097C40FD51F75
:1010E000AE01420F531F4732510544F3F80184818A
:1010F000CC20D1F040E050E060E070E8F11003C097
:1011000040E050E0BA0180788C60F801848340832D
:10111000518362837383FC2C75CF2B3219F0319687
:10112000C12CC3CF3296FCCF40E050E060E87FEFA7
:10113000F11004C040E050E060E87FE780788C6008
:10114000F8018483408351836283738376CFCC20FC
:1011500019F0D195C195D1092081211141C0CE0D41
:10116000D11DE7FCDA950E94A62F1C161D0604F57A
:10117000E12CC0FF0CC024E0E29EF0011124EE59E6
:10118000FE4F25913591459154910E940730D59598
:10119000C795E394209769F7F1109058F8012481DE
:1011A00020782C602483608371838283938345CF6E
:1011B000D195C195D109E12C209771F3C0FF0CC0E6
:1011C00044E0E49EF0011124E658FE4F259135914C
:1011D000459154910E940730D595C795E394ECCF83
:1011E000F12C10CFCF92DF92EF92FF92CF93DF934B
:1011F00000D000D01F92CDB7DEB7FC01892B39F0AB
:1012000084818F778630B9F028F4843088F590E0B7
:1012100080E013C08A30E9F08C30B9F18830B9F73A
:1012200080819181A281B381811520E89207A10577
:10123000B10568F702C0808190E00F900F900F9089
:101240000F900F90DF91CF91FF90EF90DF90CF90B4
:10125000089580819181A281B381AC01BD01505874
:101260006F4F7F4F411551056140710580F6E5CF05
:10127000808191811D82BE016F5F7F4F0E94810737
:10128000CE0101960E94F208D8CFC080D180E280C2
:10129000F38020E030E040E057ECC701B6010E9447
:1012A0008A3287FDB4CF20E03EEF4FEF56E4C7010E
:1012B000B6010E94A12F18160CF4A9CFC701B601E0
:1012C0000E945432CB01B9CFCF93FC01892B49F155
:1012D00094819F779830E1F040F4992311F1963092
:1012E000A9F0C1E08C2FCF9108959A3089F09C30FD
:1012F000C1F7C1E020E030E0A90160817181828105
:1013000093810E94A12F8111EDCF0BC0C081EACF44
:10131000C1E080819181A281B381892B8A2B8B2BA3
:1013200009F7C0E0DFCFCF93DF93DC01EB01EC8165
:10133000FD818A819B810896E817F90740F481E0D6
:101340008887F0E0E0E0CF01DF91CF9108953897F2
:10135000FD83EC833097B9F31296CD91DC9113970E
:10136000209791F0CF018C1B9D0B23E095958795DD
:101370002A95E1F78D831396FC93EE9312971582CD
:10138000148217821682DFCF1196FC93EE93F3CF6F
:10139000EF92FF920F931F93CF93DF937C01DC01B9
:1013A00012962D913C911397ED91FC91AB01420F58
:1013B000531FEF01C60FD71FC217D307A0F48881B0
:1013C00081110BC0E901CF014C175D0751F0099164
:1013D000DC011D91CD010117B9F381918111FDCF80
:1013E000E8CF309751F4620F731FCB010196F701DC
:1013F00093838283DB011C92F901CF01DF91CF91AE
:101400001F910F91FF90EF90089590E080E0089574
:10141000CF93DF93EC0180E290E00E949C329C012C
:10142000205E3F4F009711F430E020E09A838983DB
:101430009C838B833E832D8338872F8319861E865A
:10144000DF91CF910895AF92BF92CF92DF92EF924A
:10145000FF920F931F93CF93DF9300D000D0CDB7AF
:10146000DEB78C016B017A018091F3048333E9F4D8
:101470005B016801C40ED51EC016D106A9F10E94F9
:1014800008048FE00E941304812F0E941304802F10
:101490000E9413040F5F1F4F80E00E941304F501A8
:1014A00081935F010E94FE03E7CF843369F50E94B8
:1014B000080419830A838F2D8F778B83EC8264E075
:1014C00070E0CE0101960E94E403A70170E060E0A5
:1014D000C6010E949C34E114F10421F0B701C60159
:1014E0000E94E4030E94FE03C7010F900F900F902B
:1014F0000F90DF91CF911F910F91FF90EF90DF90B0
:10150000CF90BF90AF9008950E9408040F3F11053F
:1015100009F030F419820A831B8263E070E0D1CFB6
:1015200017FD0BC019820A8333E0169507953A958B
:10153000E1F7007E08600B83F0CFC80126E09695A6
:1015400087952A95E1F7807E19830A830115104C4F
:1015500018F480618B83E1CF8861FCCFCF93DF9358
:101560001F92CDB7DEB72091550430E0322F2227ED
:10157000260F371F90E0982F882741E050E0BE01EA
:101580006F5F7F4F820F931F0E94230A89810F9004
:10159000DF91CF910895CF93C82F462F61E070E07F
:1015A0000E94260561E070E08C2F0E94AE0A811136
:1015B000F9CFCF910895CF93C82F80E591E00E9495
:1015C000220168E070E08C2FCF910C94CB0ACF936E
:1015D000C82F80E591E00E94220160E170E08C2F2D
:1015E000CF910C94CB0ACF93DF93EC01888D84309C
:1015F00020F40E94E70A84E0888FDF91CF9108955C
:1016000063E070E00C94AE0ACF93C82F80E591E0C0
:101610000E9422018C2FCF910C94000BEF92FF922D
:101620000F931F93CF937C010BEE14E0C0E0F80101
:10163000219131918F01F701848195812817390714
:1016400029F0CF5FC43099F780E006C08C2F0E944C
:10165000040B8431B1F781E0CF911F910F91FF907E
:10166000EF900895CF93DF93EC018C858430D0F414
:101670000E94040B843189F0882379F0883169F065
:1016800021E08C3159F4E881F9810084F185E02D65
:10169000CE01099521E0892B09F420E0822FDF910A
:1016A000CF91089580E0FBCFCF92DF92EF92FF922F
:1016B000CF93DF93EC018C85843068F40E94DB0AC1
:1016C0000E94A6036B017C018C850E94040B811192
:1016D00009C084E08C87DF91CF91FF90EF90DF907D
:1016E000CF90089561E070E080E090E00E94740384
:1016F0000E94A603AB01BC014C195D096E097F096C
:101700008D859E85B0E0A0E0481759076A077B07E2
:10171000D8F28C850E94E70ADCCFCF93FC01C08D04
:1017200080E591E00E94220160E270E08C2F0E942F
:10173000CB0A62E070E08C2F0E94AE0A84FD16C0D6
:1017400062E070E08C2F0E94AE0A83FF0AC048E17D
:1017500062E070E08C2F0E94260580E090E0CF913F
:10176000089580E591E00E942201E3CF40E162E02C
:1017700070E08C2F0E94260581E0F0CFCF93DF939D
:101780001F92CDB7DEB741E050E0BE016F5F7F4FE3
:1017900090E080E00E94230A89810F90DF91CF9131
:1017A0000895CF93DF93C4E1D0E00E94BE0B88235D
:1017B00061F061E070E080E090E00E9474032197A6
:1017C000A1F780E0DF91CF91089581E0FBCF1F93D7
:1017D000CF93DF931F92CDB7DEB7182F80E591E04E
:1017E0000E942201812F0E94DD0427E0129FF00158
:1017F0001124E153FB4F22813381377041E050E0E7
:10180000BE016F5F7F4F820F931F0E94230A898161
:101810000F90DF91CF911F910895FC01808D84304E
:1018200040F4218D328D232B21F00E94E70B90E0B4
:1018300008958FEF9FEF0895CF93DF93FC012485E8
:10184000243028F08FEF9FEFDF91CF910895EC01C6
:101850000190F081E02D0084F185E02D0995892B20
:1018600089F38C850E94E70B90E0EECFDA01E091DE
:101870005504F0E0FE2FEE27E60FF71F90E0982FBB
:101880008827A901BD018E0F9F1F0C94230A8F92F8
:101890009F92AF92BF92CF92DF92EF92FF921F93EF
:1018A000CF93DF93CDB7DEB72C970FB6F894DEBF9A
:1018B0000FBECDBF2091F30414E0222329F16B0168
:1018C0007C0180E591E00E9422015E0127E0A20EEA
:1018D000B11C450110E0812F0E94000BF40181939F
:1018E0004F01882349F11F5F1430A9F710E0F5017B
:1018F00081915F018D31D9F08831C9F08A518230F0
:10190000B0F01F5F143099F7812F2C960FB6F89422
:10191000DEBF0FBECDBFDF91CF911F91FF90EF9043
:10192000DF90CF90BF90AF909F908F90089560E12F
:1019300070E0812F0E94CB0AA12EB12CF501EE0F91
:10194000FF1FE551FB4F1182108283EE93E0019758
:10195000F1F742E870E060E0812F0E9426054FEF2A
:1019600062E070E0812F0E942605B601C114D10407
:1019700091F4809100019091010101968115F0ECA4
:101980009F0708F45CC0909301018093000160916F
:10199000000170910101812F0E94110586E0ECE0A9
:1019A000F1E0DE01119601900D928A95E1F7F701C1
:1019B00083818F778C8384818D8385818E83A7013A
:1019C0004E5F5F4F24E030E06CE070E0812F0E94BA
:1019D000EB04B601812F0E94FC0426E030E0AE014A
:1019E0004F5F5F4F66E070E0812F0E94EB0461E083
:1019F00070E0812F0E94CB0A27E02A9DC0012B9D19
:101A0000900D11249C0121533B4F7901F901118262
:101A1000108222E030E0AE01455F5F4F68E270E087
:101A2000812F0E94360C8B859C85982789279827C3
:101A3000F7019383828316821582148265CF80E03A
:101A400090ECA1CFCF92DF92EF92FF920F931F9372
:101A5000CF93DF9300D000D000D0CDB7DEB78C019C
:101A60006B017A01FC01808D843010F40E94E70A3A
:101A700086E891E09A838983F60182819381A4812B
:101A8000B5818B839C83AD83BE83B701CE01019664
:101A90000E94470CF801808F8430A0F4F586E4861C
:101AA000128E118E81E026960FB6F894DEBF0FBE1F
:101AB000CDBFDF91CF911F910F91FF90EF90DF90FD
:101AC000CF90089580E0EFCFAF92BF92CF92DF9298
:101AD000EF92FF920F931F93CF93DF9300D000D02C
:101AE00000D0CDB7DEB7082F6B0180E591E00E94F2
:101AF00022019E012F5F3F4F7901590110E0812F94
:101B00000E94000BF50181935F01882341F11F5F63
:101B10001430A9F710E0F70181917F018D31D1F0E8
:101B20008831C1F08A518230A8F01F5F143099F7D4
:101B3000812F26960FB6F894DEBF0FBECDBFDF9182
:101B4000CF911F910F91FF90EF90DF90CF90BF90BA
:101B5000AF90089560E170E0812F0E94CB0AE12EE2
:101B6000F12CF701EE0FFF1FE551FB4F11821082A0
:101B700083EE93E00197F1F7402F70E060E0812F52
:101B80000E9426054FEF62E070E0812F0E9426053B
:101B9000B601CD2889F48091000190910101019650
:101BA0008115F0EC9F0798F190930101809300015B
:101BB0006091000170910101812F0E94110561E087
:101BC00070E0812F0E94CB0A27E02E9DC0012F9D3F
:101BD000900D11249C0121533B4F7901F901118291
:101BE000108222E030E0AE014B5F5F4F68E270E0B0
:101BF000812F0E94360C8D819E81982789279827F6
:101C0000F7019383828316821582148291CF80E03C
:101C100090ECCACFCF92DF92EF92FF921F93CF93B7
:101C2000DF93EC017B016A018C85843048F40E94CB
:101C3000040B882319F08C850E94DB0A84E08C87D2
:101C4000F70182819381A481B5810097A105B10537
:101C500051F490E080E0DF91CF911F91FF90EF90E1
:101C6000DF90CF9008958F3F9F4FAF4FBF4F89F3C5
:101C70008091F304811103C084E08C87EACF70E087
:101C800060E081E20E94640D182F8C87843008F791
:101C900080E591E00E942201A7014E5F5F4F24E0A2
:101CA00030E06CE070E0812F0E94EB04B601812FE0
:101CB0000E94FC0464E070E0812F0E94CB0A0E9425
:101CC000A6036B017C018C850E94040B873109F10E
:101CD0008C31F9F0882309F4BCCF0E94A603AB0134
:101CE000BC014C195D096E097F098D859E85B0E0A8
:101CF000A0E084179507A607B70738F061E070E009
:101D000080E090E00E947403DECF8C850E94E70A99
:101D1000B3CF81E090E09FCF0F931F93CF93DF93DA
:101D2000EC018B01888D843010F40E94E70A8091C9
:101D3000F304811107C094E0988FDF91CF911F9138
:101D40000F910895B80182E00E94640D888F84305D
:101D500030F41D870C871A8E198E81E0EECF80E05B
:101D6000ECCF0F931F93CF932091F304222349F1DB
:101D70008C01FC016481758181E20E94640DC82F91
:101D80008430F8F480E591E00E9422018C2F0E94BB
:101D9000000B833131F08C2FCF911F910F910C9458
:101DA000DB0A62E070E08C2F0E94CB0AF80184818C
:101DB0009581EC2FF0E0EE0FFF1FE551FB4F918373
:101DC0008083CF911F910F9108957F928F929F9260
:101DD000AF92BF92CF92DF92EF92FF920F931F9339
:101DE000CF93DF9300D0CDB7DEB7782E8B014A01B9
:101DF000590122E030E0AE014F5F5F4F64E270E0D6
:101E00000E94360CE980FA80FE24EF24FE24E00EC6
:101E1000F11E970137704091F304072D10E0433312
:101E200009F042C0085F1F4F102F0027110F110F3C
:101E3000110FC901800F911F4733C9F1A9014A0D44
:101E40005B1D4130584098F160E078E06B01C21AA8
:101E5000D30AA601B4010E941A04A5014C195D0918
:101E6000B4016C0D7D1DC8010E941A04EA0CFB1C14
:101E7000F982EA8222E030E0AE014F5F5F4F64E218
:101E800070E0872D0E94EB040F900F90DF91CF91AF
:101E90001F910F91FF90EF90DF90CF90BF90AF9088
:101EA0009F908F907F900895005F1F4FBDCFA50139
:101EB000B401DACFEF92FF921F93CF93DF9300D05C
:101EC000CDB7DEB7182F22E030E0AE014F5F5F4F95
:101ED00060E270E00E94360CE980FA80FE24EF2474
:101EE000FE2422E030E0AE014F5F5F4F60E270E021
:101EF000812F0E94360C89819A81982789279827FB
:101F0000E816F90689F487E0189FF0011124E153DF
:101F1000FB4FF582E482C7010F900F90DF91CF91C4
:101F20001F91FF90EF9008957C01DBCF1F93CF931B
:101F3000DF93182F80E591E00E942201812F0E94FB
:101F40005A0FEC01812F0E94000B873121F08C3158
:101F500011F0D0E0C0E0CE01DF91CF911F91089544
:101F6000CF93DF93EC018C85843060F40E94040BE6
:101F7000873111F08C3131F48C850E94960F8115D8
:101F8000984088F3DF91CF910895FC0184858430D7
:101F900010F40C94960F90E080E00895CF92DF92B9
:101FA000EF92FF921F93CF93DF93182F7B01EA01EB
:101FB0004130584010F0C0E0D8E080E591E00E9448
:101FC0002201812F0E945A0F6C01812F0E94000B69
:101FD000873111F08C3121F5CC16DD0670F380E5E8
:101FE00091E00E9422019E01A70170E060E0812F34
:101FF0000E94E50E60E270E0812F0E94CB0A62E051
:1020000070E0812F0E94AE0A84FD0DC0812F0E94D6
:10201000000B8823B9F080E591E00E942201EFCF08
:10202000D0E0C0E0DCCF40E162E070E0812F0E94B0
:102030002605CE01DF91CF911F91FF90EF90DF90A9
:10204000CF900895D0E0C0E0F4CF0F931F93CF93CB
:10205000DF938C01EA01FC018485843048F40E94FE
:10206000CE0F892B39F481E090E0F80193838283CD
:10207000D0E0C0E0CE01DF91CF911F910F91089584
:102080009F92AF92BF92CF92DF92EF92FF920F9307
:102090001F93CF93DF938C015B01942EE52EFC01FF
:1020A000C688D788F08C80E591E00E9422018F2DB0
:1020B0000E945A0FC92DDE2D8C179D0708F4EC01E4
:1020C0009E01A501B6018F2D0E94E50EF8018689BB
:1020D00097898C0F9D1F978B868BCE01DF91CF91B7
:1020E0001F910F91FF90EF90DF90CF90BF90AF9036
:1020F0009F900895FF920F931F93CF93DF9300D08B
:10210000CDB7DEB7F82E22E030E0AE014F5F5F4F73
:1021100066E270E00E94360C09811A8110270127BF
:10212000102722E030E0AE014F5F5F4F66E270E0C3
:102130008F2D0E94360C89819A81982789279827AC
:102140000817190749F4C8010F900F90DF91CF913C
:102150001F910F91FF9008958C01E3CF1F93CF93B0
:10216000DF93182F87E0189FE0011124C153DB4F44
:1021700088819981009761F480E591E00E942201B5
:10218000812F0E947A102E81821B91099983888366
:10219000DF91CF911F910895AF92BF92CF92DF92BE
:1021A000EF92FF920F931F93CF93DF93EC017B018C
:1021B0008091F304811120C01B821A8288EE93E083
:1021C000A0E0B0E08C839D83AE83BF8386E191E085
:1021D0009983888384E08C8788EE93E09E878D873F
:1021E000CE01DF91CF911F910F91FF90EF90DF9083
:1021F000CF90BF90AF9008958BEEC82E84E0D82E7C
:1022000010E094E0B92EA12CD6012D913D916D01E5
:10221000F701848195812817390791F4812F0E9455
:10222000040B082F873111F08C3139F5812F0E9472
:10223000AE10892B59F50C3119F4812F0E94DB0A5D
:102240001F5F143009F7A11008C0D701ED91FC9170
:102250000084F185E02DC70109951B821A8288EE62
:1022600093E0A0E0B0E08C839D83AE83BF8386E1E2
:1022700091E099838883BC86AFCF843149F0811186
:10228000DFCFF601329711821082DACFB12ED8CF8C
:10229000AA24A394D5CF8F929F92AF92BF92CF9250
:1022A000DF92EF92FF921F93CF93DF93CDB7DEB70C
:1022B0002F970FB6F894DEBF0FBECDBF5C014B0168
:1022C0007A018091F3048823A1F1B501CE01019632
:1022D0000E94CC108BEEC82E84E0D82E10E0F601C0
:1022E000219131916F01F50184819581281739077A
:1022F00051F4812F0E94040B873129F4A701B40106
:10230000812F0E94CE0F1F5F143049F7C7012F960F
:102310000FB6F894DEBF0FBECDBFDF91CF911F91F6
:10232000FF90EF90DF90CF90BF90AF909F908F90F5
:102330000895F12CE12CEACFFC018485843010F45F
:102340000C94AE1090E080E008954F925F927F92DF
:102350008F929F92AF92BF92CF92DF92EF92FF92B5
:102360000F931F93CF93DF9300D0CDB7DEB7782EB6
:102370006B014A01A82EB12C27E0829FC0011124D5
:10238000FC01E153FB4F7F010081118180E591E069
:102390000E9422010815190554F4872D0E947A1015
:1023A000F70126818C01021B11091183008301159D
:1023B000110519F5872D0E94000B843159F08823EF
:1023C00049F001E010E08C3111F410E000E01195CB
:1023D00001951109C8010F900F90DF91CF911F91C6
:1023E0000F91FF90EF90DF90CF90BF90AF909F90B4
:1023F0008F907F905F904F900895801691060CF417
:10240000840187E08A9DF0018B9DF00D1124E1533A
:10241000FB4FE280F380C114D10451F12701F7E0B2
:102420005F22872D0E94DD04840D951D2091F30409
:10243000273309F453C09801240D351D213038404D
:1024400008F44CC020E038E0490184189508A40144
:10245000B6010E94230A2601480C591C6801C818BD
:10246000D908872D0E94DD04A601B2010E94230A2B
:10247000E00EF11E87E08A9DF0018B9DF00D112486
:10248000E153FB4FF382E28220813181201B310B2B
:10249000318320838681800F912F911D8A3F910582
:1024A00010F4232BF1F487E08A9DF0018B9DF00D51
:1024B0001124E153FB4F1682F982EA8222E030E0D8
:1024C000AE014F5F5F4F68E270E0872D0E94EB0422
:1024D00060E470E0872D0E94CB0A7CCFA801B60192
:1024E000C5CF868377CFCF93DF93FC01218D328DCB
:1024F0002115310529F48FEF9FEFDF91CF910895DA
:10250000EC01808D4217530708F0A9010E94A51124
:102510001816190684F7298D3A8D281B390B3A8F26
:10252000298FEBCF0F931F93CF93DF931F92CDB7DC
:10253000DEB7FC01218D328D232B41F48FEF9FEF0D
:102540000F90DF91CF911F910F9108958C0141E081
:1025500050E0BE016F5F7F4FFC01808D0E94A5118E
:10256000181619065CF7F801818D928D0197928FEC
:10257000818F898190E0E4CFCF93DF931F92CDB715
:10258000DEB741E050E0BE016F5F7F4FFC01848504
:102590000E94A5111816190634F4898190E00F9055
:1025A000DF91CF9108958FEF9FEFF9CFFC018485E4
:1025B000843010F40C94A51190E080E008950F93FE
:1025C0001F93CF93DF9300D0CDB7DEB7FC012485F6
:1025D0002430E0F48C0180E591E00E94220122E0A9
:1025E00030E0AE014F5F5F4F60E170E0F80184853D
:1025F0000E94360C89819A819827892798270F9005
:102600000F90DF91CF911F910F91089590E080E09E
:10261000F6CF0F931F93CF93DF9300D0CDB7DEB7E4
:10262000FC0124852430E0F48C0180E591E00E94D7
:10263000220122E030E0AE014F5F5F4F64E070E0C6
:10264000F80184850E94360C89819A819827892710
:1026500098270F900F90DF91CF911F910F910895C0
:1026600090E080E0F6CFDC0186E891E08D939D93C9
:1026700084E0FB0101900D928A95E1F70895EF92B5
:10268000FF920F931F93CF93DF9300D000D0CDB76D
:10269000DEB78C017B01FB0184858430A8F086E8DD
:1026A00091E0F80191838083128213821482158253
:1026B000C8010F900F900F900F90DF91CF911F9155
:1026C0000F91FF90EF90089580E591E00E94220124
:1026D00024E030E0AE014F5F5F4F6CE070E0F70147
:1026E00084850E94360CBE016F5F7F4FC8010E9437
:1026F0003313DECF0F931F93CF93DF93CDB7DEB7A6
:1027000028970FB6F894DEBF0FBECDBF8C01D8015D
:1027100059964D915C915A974115510551F0ED91A3
:10272000FC91048CF58DE02D70E060E0C801099506
:10273000EECFF801808D0E94AE10892BB1F148E0F8
:1027400050E0BE016F5F7F4FD80158968C910E9478
:10275000A51118161906F4F4D801509684E0FE016C
:10276000319601900D928A95E1F78D8190E0982F36
:1027700088272E81820F911DF801958B848B8F8184
:10278000282F30E0322F22278885820F932F911D2A
:10279000928F818F28960FB6F894DEBF0FBECDBF03
:1027A000DF91CF911F910F91089590E080E0F2CFDB
:1027B0004F925F926F927F928F929F92AF92BF9251
:1027C000CF92DF92EF92FF920F931F93CF93DF93FD
:1027D000CDB7DEB763970FB6F894DEBF0FBECDBF9F
:1027E0007C016B013A01FB0120E090E080E06AE0AF
:1027F0003191332309F461C040ED430F4A3008F0B2
:102800004DC0689FA001699F500D1124CA01C09757
:10281000830F911D37FD9A958F3F910549F340F342
:10282000F70142815381648175818091BD0590914A
:10283000BE05A091BF05B091C005481759076A07AA
:102840007B0709F40DC28701085F1F4F0E94A60392
:102850006F7077277C5FC8010E948C0E813009F071
:1028600004C286E891E09A838983F701828193818B
:10287000A481B5818B839C83AD83BE8345E350E007
:10288000BE016F5F7F4FC8010E94AC05892BA9F57F
:10289000D12CC12CC8010E94F30A17C03E3209F0A6
:1028A000BFCF233009F4BCCFD301A20FB11D1296C4
:1028B0008C932F5F90E080E09BCF233009F0B0CF66
:1028C000F3018583CC24C394D12CC60163960FB643
:1028D000F894DEBF0FBECDBFDF91CF911F910F9156
:1028E000FF90EF90DF90CF90BF90AF909F908F9030
:1028F0007F906F905F904F9008950E94A603F7011C
:102900007783668342E050E0B7016A5F7F4FC8017A
:102910000E94401081E090E09A83898342E050E079
:10292000BE016F5F7F4FC8010E94401080E091E0C0
:102930009A83898342E050E0BE016F5F7F4FC801F8
:102940000E9440101A82198242E050E0BE016F5F7F
:102950007F4FC8010E94401042E050E0BE016F5F0F
:102960007F4FC8010E94401042E050E0BE016F5FFF
:102970007F4FC8010E9440105601F60180818823D4
:1029800001F16501F60181912F01882311F08E324A
:10299000B1F446018A189B081814190474F48D8642
:1029A00041E050E0BE01635F7F4FC8010E944010CC
:1029B000A401B501C8010E9440105201DECF62019E
:1029C000E1CF1D8641E050E0BE01635F7F4FC8014B
:1029D0000E944010C12CDD24D394DA82C98242E0E7
:1029E00050E0BE016F5F7F4FC8010E944010DA8245
:1029F000C98242E050E0BE016F5F7F4FC8010E9474
:102A00004010C8010E948D0B892B09F441CFF3E0DF
:102A1000AF2EB12C230122E0420E511CD4C0F7018D
:102A20004281538164817581808D918DA28DB38D9A
:102A3000481759076A077B0709F008C1848D958DEF
:102A4000C59709F003C181A192A15DEFC52EDD24D8
:102A5000DA940C970CF4ADC04CE050E0BE016F5F0F
:102A60007F4FC8010E9473128B819C819827892710
:102A700098279A8B898BF7014681578129813A8162
:102A80004217530709F0E7C097FFE5C08F709270B7
:102A90003BEFC32EDD24DA94892B09F08AC06F80C6
:102AA00078847624672476242AEFC22EDD24DA94F3
:102AB0006114710409F47DC0D12CC12C8D819E81DB
:102AC000982789279827C816D906F8F441E050E0DE
:102AD000BE01635F7F4FC8010E9473124D8544237E
:102AE00031F050E070E060E0C8010E9473128D8503
:102AF0008111ECCF44E050E070E060E0C8010E943A
:102B00007312FFEFCF1ADF0AD9CF912C812C41E04D
:102B100050E0BE016D5E7F4FC8010E9473124B8969
:102B2000842F807C09F06CC0442331F050E070E0C9
:102B300060E0C8010E9473128B898111E8CF42E0E6
:102B400050E0BE01615F7F4FC8010E94731242E0F6
:102B500050E0BE01635F7F4FC8010E94731244E0E2
:102B600050E070E060E0C8010E94731242E050E063
:102B7000BE016F5E7F4FC8010E9473128F859889D6
:102B800049895A898115914009F043C0CD84DE847A
:102B9000DC24CD24DC2481E0C816D104D1F5411514
:102BA000544009F04AC044E050E0B201C8010E941C
:102BB000731221E0A21AB10809F46CCEFFEFCF1610
:102BC000DF0609F067CE0E94A6033B014C01C80155
:102BD0000E947A13181619060CF421CF0E94A6033E
:102BE0006619770988099909693873418105910542
:102BF00048F562E370E080E090E00E947403E7CF64
:102C000041E050E070E060E0C8010E9473121B8A4E
:102C100093CF54274527542770E060E0C8010E94F5
:102C20007312FFEF8F1A9F0A6814790409F06FCFAF
:102C300096EFC92EDD24DA94BCCFE7EFCE2EDD244B
:102C4000DA94B7CFCC24CA94DC2CB3CF6EEFC62E67
:102C5000DD24DA94AECF4CEFC42EDD24DA94A9CF74
:102C60008EEFC82EDD24DA9430CED12CC12C2DCE9F
:102C7000CF92DF92EF92FF920F931F93CF93DF9348
:102C8000CDB7DEB7AF970FB6F894DEBF0FBECDBF9E
:102C90007C016A0106E811E01A8309831C861B8601
:102CA00088EE93E0A0E0B0E08D879E87AF87B88B79
:102CB00084E491E09A878987188F0F8B198E1A8E7A
:102CC0001B8E1C8E84E089A31BA70AA71CA61DA629
:102CD0001EA61FA68091B1059091B205A091B305E3
:102CE000B091B4058EA39FA3A8A7B9A78B839C839B
:102CF000AD83BE8318861F82AE01465D5F4FCE0155
:102D000001960E94D81381309105B1F4D701ED915D
:102D1000FC910488F589E02D1DA30CA38CA59DA52D
:102D2000AEA5BFA58EA39FA3A8A7B9A7A601BE0164
:102D30006C5D7F4FC7010995AF960FB6F894DEBF63
:102D40000FBECDBFDF91CF911F910F91FF90EF90FC
:102D5000DF90CF900895CF92DF92EF92FF920F9382
:102D60001F93CF93DF93CDB7DEB7AF970FB6F8942D
:102D7000DEBF0FBECDBF8C016B017A0186E891E00A
:102D80009A8389831B821C821D821E821C861B865D
:102D900048EE53E060E070E04D875E876F87788B88
:102DA00024E431E03A872987988F8F8B198E1A8E09
:102DB0001B8E1C8E24E029A39BA78AA71CA61DA6F8
:102DC0001EA61FA6D8011C968C91843060F40E9428
:102DD000040B882321F0F80184850E94DB0A84E03B
:102DE000D8011C968C938091B1059091B205A09169
:102DF000B305B091B4058EA39FA3A8A7B9A78B83F1
:102E00009C83AD83BE8318861F82AE01465D5F4FF3
:102E1000B601CE0101960E94D8130097C1F0D801E7
:102E2000ED91FC910684F785E02D86E891E09DA365
:102E30008CA38CA59DA5AEA5BFA58EA39FA3A8A777
:102E4000B9A7A701BE016C5D7F4FC8010995AF9678
:102E50000FB6F894DEBF0FBECDBFDF91CF911F91AB
:102E60000F91FF90EF90DF90CF900895FB010190BC
:102E70000020E9F73197AF01461B570BDC01ED91BC
:102E8000FC910280F381E02D09948F929F92AF9282
:102E9000BF92EF92FF920F931F93CF93DF93CDB723
:102EA000DEB7A1970FB6F894DEBF0FBECDBF7C0191
:102EB000FA01CB0119A2223008F42AE08E010F5D3D
:102EC0001F4F822E912CB12CA12CBF01A501940182
:102ED0000E944431F901CA016A300CF5605DD801E5
:102EE0006E938D01232B242B252B79F790E080E026
:102EF000109721F0BD01C7010E943617A1960FB6A9
:102F0000F894DEBF0FBECDBFDF91CF911F910F911F
:102F1000FF90EF90BF90AF909F908F900895695C65
:102F2000DECF8F929F92AF92BF92CF92DF92EF92BD
:102F3000FF920F931F93CF93DF937C01EB016C0102
:102F400082E0C80ED11C4701E5E08E0E911C10E016
:102F500000E0F60141916F0150E070E060E02AE08E
:102F6000CE010E9445175C01E881F9810190F08152
:102F7000E02D6EE2CE0109958A0D9B1D080F191FE9
:102F8000C814D90431F7F701458150E070E060E0E2
:102F90002AE0CE010E944517800F911FDF91CF914B
:102FA0001F910F91FF90EF90DF90CF90BF90AF9067
:102FB0009F908F900895BC0184EF94E00C94361795
:102FC00069EA71E00C943617CF93DF93BC0184EF6C
:102FD00094E00E943D01EC0184EF94E00E94E01730
:102FE0008C0F9D1FDF91CF9108950F931F93CF9367
:102FF000DF93EC010E9436178C01CE010E94E0178E
:10300000800F911FDF91CF911F910F910895CF9362
:10301000DF9361157105A1F1DC018D919C91009701
:1030200089F1EC01EE81FF81DB010D900020E9F7D1
:103030001197A61BB70B30E020E0309749F0EF0165
:1030400009900020E9F79E01215031092E1B3F0B0A
:103050002A173B0751F4DB01260F371F2A173B07BE
:1030600089F05D9141915417C9F3FC012581222318
:1030700039F0F8E02F0290011124820F931FCFCF77
:1030800090E080E0DF91CF9108959F92AF92BF9240
:10309000CF92DF92EF92FF920F931F93CF93DF9324
:1030A000EC017B01D42E0E9462068C01892B09F071
:1030B00052C0CE010E941406863609F455C194F51B
:1030C000873229F08B35D1F1823209F056C1E8817F
:1030D000F981828193819B838A8384819581228176
:1030E0003381821B930B9F838E831D821C82892BCD
:1030F00011F481E08087CE010E949E068C01892B0D
:1031000051F5AC80BD80B501888199810E94C809C4
:10311000F701248120782560248391838083B38202
:10312000A28219C0843709F408C18B3709F453C04F
:103130008E3609F022C167EB71E008C1F701848186
:103140008078806484831182108213821282D1106D
:103150000FC005E010E0C801DF91CF911F910F91E2
:10316000FF90EF90DF90CF90BF90AF909F90089529
:103170001E86CE010E946206009709F02DC16DE502
:10318000CE010E942E068111E6CFDA946F857889F0
:10319000C7010E949309009709F46EC04D2DBC0130
:1031A000CE010E944518009709F016C1CE010E9479
:1031B0006206009709F010C16DE5CE010E942E064F
:1031C0008111C9CF6CE2CE010E942E068111DECFA3
:1031D00003E010E0C0CFF7018481807880628483AF
:1031E0001182108213821282DD2009F4B2CF1E8672
:1031F000CE010E946206009709F0EEC06DE7CE0195
:103200000E942E068111A7CFBB24B394DA94E881E3
:10321000F981828193819B838A8384819581228134
:103220003381821B930B9F838E831D821C82892B8B
:1032300009F4B086CE010E941406873201F1823271
:10324000F1F0CE010E941406182F0E940206882376
:1032500009F4BECF1E86612FCE010E948406CE01E6
:103260000E941406182F0E9402068111F3CFE881F4
:10327000F9818085882351F004E010E06CCFCE0105
:103280000E949E068C01892B09F065CFCE010E9419
:1032900062068C01892B09F05ECF6AE3CE010E94A1
:1032A0002E06882309F494CFEA81FB818C819D81CD
:1032B000E80FF91F10820C811D816A817B81C70193
:1032C0000E940718BC01892BA1F4B801888199815B
:1032D0000E94C8098C016F857889C7010E949309F3
:1032E000FC01892B49F284818068848317830683DB
:1032F000BF014D2DCE010E9445188C01892B09F08C
:103300002ACFCE010E9462068C01892B09F023CFBF
:103310006DE7CE010E942E0681111DCF6CE2CE0119
:103320000E942E06882309F453CFCE010E94620624
:103330008C01892B09F46BCF0ECFF7018481807843
:103340008660848381E080836CEA71E0CE01DF9146
:10335000CF911F910F91FF90EF90DF90CF90BF9092
:10336000AF909F900C943F06F7018481807886602F
:103370008483108261EB71E0E9CFCE010E941406D4
:103380005E01F1E1AF0EB11CD12C9A2CCB2C803315
:1033900074F08A3374F49FE3D91699F01E86D3949F
:1033A000F50181935F01CE010E941406F0CF8B32AC
:1033B00091F393ED980F923070F3982F9F7D953491
:1033C00051F3CD0DD11D198AB701892D9C2D0E9475
:1033D00081078111C0CEFCCE8C01BDCE0F931F930F
:1033E000CF93DF93CDB7DEB7C156D1090FB6F894AE
:1033F000DEBF0FBECDBF8C01FB01208131818481F6
:103400009581820F931FF8016081718173836283BC
:103410006681778175836483108615866C961FAFED
:103420000EAF6C9758E0FE01E65AFF4FDE01AE5A30
:10343000BF4F01900D925A95E1F758E0FE01EE5A08
:10344000FF4FDE01119601900D925A95E1F7198612
:103450003B872A879D878C871F86198B088BB8012D
:10346000675F7F4FCE0101960E944518009749F48F
:103470002E85222331F0F801258523FF02C083E049
:1034800090E0CF59DF4F0FB6F894DEBF0FBECDBF2F
:10349000DF91CF911F910F910895FC01248125FFA9
:1034A00004C0009711F00C94071890E080E0089594
:1034B00009960E944D1A21E0892B09F420E0822F01
:1034C0000895CF93DF93DC0114962D913C911597CD
:1034D000232B79F0FB01CD91DC9160817181CE01CC
:1034E0000E94AA34009729F08C1B9D0BDF91CF918D
:1034F00008958FEF9FEFFACF7F928F929F92AF92B6
:10350000BF92CF92DF92EF92FF920F931F93CF93D0
:10351000DF93CDB7DEB7A6970FB6F894DEBF0FBE28
:10352000CDBF8C01762E942E852E20E2A22ECE01C8
:1035300001967C01DC01EA2D1D92EA95E9F768010C
:10354000F3E4CF0ED11C86E891E09AA389A38FEF14
:103550008BA38CA38DA38EA343E450E0BE016F5DCB
:103560007F4FC6010E94AC05019609F4BFC081E0FF
:1035700089838A8386E0B82EBB821C82D801149688
:103580006D917D918D919C9117970E948F326D83E3
:103590007E838F83988789869A8680E890E09C87CF
:1035A0008B874CE150E0B701C6010E944010FE013C
:1035B00037968AE1DF011D928A95E9F74801B8E064
:1035C0008B0E911CF401D70101900D92BA94E1F792
:1035D00040E150E0B701C6010E944010F70111928E
:1035E000AA94E9F796E0A92EB12C40E250E0B70189
:1035F000C6010E944010F1E0AF1AB108B1F783E6AE
:10360000898392E89A8393E59B838C8385E38D83FA
:1036100081E08E837F829DE3988797E099878A87F0
:1036200086E0F401DE011B9601900D928A95E1F788
:103630008CE0898B8A8B6CEB71E0CE0143960E9403
:10364000A334D8011B966C91CE0149960E942501A6
:10365000F8016485CE014B960E942501D8011D9684
:103660006C91CE014D960E9425014EE150E0B701CC
:10367000C6010E944010B3E07B121EC082E3898322
:1036800084E08A83F80196859B8397859C83908943
:103690009D8391899E8396E39F838887828D898706
:1036A000838D8A87848D8B87858D8C874CE050E055
:1036B000B701C6010E94401087E3898386E08A83B0
:1036C00091E09B8393E09C838D838FE08E838AE3DC
:1036D0008F838BE388878FEF898749E050E0B701BC
:1036E000C6010E944010C6010E948D0BA6960FB61F
:1036F000F894DEBF0FBECDBFDF91CF911F910F9128
:10370000FF90EF90DF90CF90BF90AF909F908F9001
:103710007F9008950F931F93CF93DF93EC018881DF
:103720009981009759F02A813B812617370730F09D
:1037300081E0DF91CF911F910F9108958B016F5F11
:103740007F4F0E94C133009759F0998388831B8370
:103750000A832C813D81232B59F7FC011082E8CF8D
:1037600080E0E7CFEF92FF920F931F93CF93DF9309
:103770006115710541F480E0DF91CF911F910F91A8
:10378000FF90EF90089541155105B1F07B01EC01D8
:103790000C811D81040F151FB8010E948A1B88230C
:1037A00051F3288139818C819D81B701820F931F4C
:1037B0000E94A3341D830C8381E0DECFCF93DF937F
:1037C00000D0CDB7DEB769831A8241E050E0BE0178
:1037D0006F5F7F4F0E94B21B0F900F90DF91CF91D0
:1037E0000895FB0101900020E9F73197AF01461BD6
:1037F000570B0C94B21BCF93DF93EC018881998116
:10380000009711F00E943833198218821D821C82A1
:103810001B821A82DF91CF910895CF93DF93EC0141
:103820000E94DE1B811103C0CE010E94FB1BCE0152
:10383000DF91CF910895CF93DF93EC01FB010190CD
:103840000020E9F73197AF01461B570B0E94B21BCE
:10385000811103C0CE010E94FB1BCE01DF91CF91ED
:103860000895CF93DF93EC01FB0144815581608182
:1038700071810E94B21B811103C0CE010E94FB1B0B
:10388000CE01DF91CF910895EF92FF920F931F9396
:10389000CF93DF93EC017B018A01BA010E948A1B5E
:1038A00081110BC0CE010E94FB1BCE01DF91CF9195
:1038B0001F910F91FF90EF9008951D830C83B70126
:1038C000888199810E94A334F0CFFB0101900020F0
:1038D000E9F73197AF01461B570B0C94441C0F932B
:1038E0001F93CF93DF93CDB7DEB762970FB6F894EF
:1038F000DEBF0FBECDBF8C01CB01F801118210825B
:1039000013821282158214824AE0BE016F5F7F4FDC
:103910000E94352DBE016F5F7F4FC8010E94651C5C
:1039200062960FB6F894DEBF0FBECDBFDF91CF9188
:103930001F910F910895EF92FF920F931F93CF93D2
:10394000DF93CDB7DEB7A1970FB6F894DEBF0FBEF9
:10395000CDBF7C01CB01BA01F70111821082138225
:103960001282158214828E010F5F1F4F22E044E005
:103970000E94732C009789F0BC01C7010E94651C4E
:10398000A1960FB6F894DEBF0FBECDBFDF91CF91E9
:103990001F910F91FF90EF900895C7010E94FB1BAC
:1039A000EFCFCF93DF93EC01FB018617970749F028
:1039B000608171816115710541F0448155810E94DA
:1039C000441CCE01DF91CF9108950E94FB1BF9CFDB
:1039D000FC011182108213821282158214820C94CF
:1039E000D11CFC0111821082138212821582148272
:1039F000FB0101900020E9F73197AF01461B570BFF
:103A00000C94441CFC0180819181009711F00C946E
:103A100038330895FC0181819281009711F00C9454
:103A2000383308953F924F925F926F927F928F92B8
:103A30009F92AF92BF92CF92DF92EF92FF920F933D
:103A40001F93CF93DF93CDB7DEB7EA970FB6F89405
:103A5000DEBF0FBECDBF7C012A013B0169010E9480
:103A6000A6034B015C0187010D5B1F4FC8010E943B
:103A70007A13181619069CF00E94A6036819790992
:103A80008A099B09461657066806790608F466C136
:103A900062E370E080E090E00E947403E7CF42E2CE
:103AA00050E0BE016F5F7F4FC8010E947312898191
:103AB0008230D1F0312C832DEA960FB6F894DEBF18
:103AC0000FBECDBFDF91CF911F910F91FF90EF906F
:103AD000DF90CF90BF90AF909F908F907F906F902E
:103AE0005F904F903F900895F801848995898334C1
:103AF000910501F76D817E818F8198850E948F32BB
:103B00004B015C01F60180829182A282B38246E081
:103B100050E0B701685F7F4FCE014D960E9486341A
:103B2000892B41F6F70180819181A281B3818816AA
:103B30009906AA06BB0608F4BDCF84819581A681AB
:103B4000B78188159905AA05BB0508F4B3CF898903
:103B50009A89AB89BC8986879787A08BB18B4EECFD
:103B600050E070E060E0C8010E947312312CC70180
:103B7000829698AB8FA7F701B696FAABE9AB089699
:103B80009CAB8BAB67019AE1C90ED11CBD96FEAB15
:103B9000EDABC701429698AF8FABFD97FAAFE9AF97
:103BA0004701FEE18F0E911CF801818D928D181650
:103BB00019060CF080CFC8010E9492128333910540
:103BC00009F4B2C014F58130910509F464C044F4DD
:103BD000892B51F3C8010E949212AC01552775C080
:103BE0008330910509F462C00697A1F7C8010E94CD
:103BF0009212B82E44E050E0B401C8010E94731242
:103C0000EB2DE450FF0BAF0160C08A33910509F43E
:103C10005FC084F585339105B1F1C697D9F6C80127
:103C20000E9492125C01B601CE0189960E94331364
:103C30008BA59CA5ADA5BEA5892B8A2B8B2BB1F09E
:103C4000EDA9FEA94080518062807380B601CE014B
:103C500083960E9433138DA19EA1AFA1B8A5A501A3
:103C6000481659066A067B0609F0B8CF44E050E0D2
:103C7000B60118C08B33910509F440C08F3F910500
:103C800009F492CFA7CFC8010E949212C8010E94E6
:103C90009212382E89CFC8010E94921244E050E05F
:103CA0006FA978ADC8010E9473127ECFC8010E942F
:103CB0009212B82E44E050E069AD7AADC8010E947E
:103CC00073128B2D8450990BAC0170E060E0EACF49
:103CD000C8010E94921244E050E069A97AA9C80183
:103CE0000E947312F70166A177A180A591A50E9499
:103CF0008F3266A377A380A791A756CFC8010E94F1
:103D0000921244E050E06BA97CA9C8010E94731292
:103D1000F70162A573A584A595A50E948F3262A7BD
:103D200073A784A795A740CFC8010E94921244E0D0
:103D300050E06FA578A9C8010E947312F70162A133
:103D400073A184A195A10E948F3262A373A384A35F
:103D500095A366A777A780AB91AB26CF33243A947F
:103D6000AACE1F93CF93DF93EC01162F0E94C5308C
:103D7000181739F0612FCE01DF91CF911F910C946C
:103D8000CD30DF91CF911F9108950C94C5302F92C3
:103D90003F924F925F926F927F928F929F92AF92DB
:103DA000BF92CF92DF92EF92FF920F931F93CF9328
:103DB000DF93CDB7DEB7CC5AD1090FB6F894DEBF8A
:103DC0000FBECDBF19821A821B821C821D8261E048
:103DD0008091D9050E94AF0260E08091D9050E94D0
:103DE000810262E170E080E090E00E94740362E092
:103DF0008091D9050E94AF0228E230E040E050E017
:103E000061E08091D9050E940503672B682B692B1F
:103E100009F05CC08DEF8093DB058091DC0590910B
:103E2000DD05A091DE05B091DF05809344049093F9
:103E30004504A0934604B09347048091E80590910F
:103E4000E905A091EA05B091EB05809340049093B9
:103E50004104A0934204B09343046DEC75E0CE019D
:103E60008C589F4F0E94CC10C058DF4F8881C0589B
:103E7000D040843008F0AAC368EA71E0CE018157CF
:103E80009F4F0E94F11C68EA71E0CE0187579F4F57
:103E90000E94F11C68EA71E0CE018D579F4F0E948D
:103EA000F11CCE018C589F4F0E949C116C01892BF4
:103EB00009F42DC1CE018C589F4F0E94BC12682F6F
:103EC000CE0181579F4F0E94DE1BEBCF20E530E0F3
:103ED00040E050E060E08091D9050E940503672B27
:103EE000682B692B09F496CF20E530E040E050E0E4
:103EF00061E08091D9050E940503672B682B692B2F
:103F000009F488CF10E000E022E330E040E050E028
:103F100060E08091D9050E94050324E630E040E08E
:103F200050E061E08091D9050E940503662331F1DC
:103F3000F801B3E0F595E795BA95E1F781E090E0F7
:103F40008C0F9D1FE80FF91F8081880F91E06E3262
:103F500008F490E0890F80830F5F1F4F083211052E
:103F600099F669814A810B811C81862F840F800F0D
:103F7000810F9D81891721F08FEF4DCF8EEF4BCFB1
:103F80008091DA05853109F486C0863109F4B9C01B
:103F90008B3009F06AC070E090E080E00E94A62FAC
:103FA0006093E8057093E9058093EA059093EB052B
:103FB000602F70E090E080E00E94A82F6B017C01F0
:103FC00017FF56C01F77612F70E090E080E00E94DD
:103FD000A82F2DEC3CEC4CEC5DE30E9407309B01DC
:103FE000AC0160E070E080E89FE30E947531A701BA
:103FF00096010E9476316B017C01F7FAF094F7F894
:10400000F094C092DC05D092DD05E092DE05F092DE
:10401000DF0520E030E040E151E4C701B6010E9435
:10402000073020E030E040EA50E40E94E23120E036
:1040300030E040E052E40E9476316093E0057093F6
:10404000E1058093E2059093E30523E333E948E833
:1040500053E4C701B6010E9476316093E405709382
:10406000E5058093E6059093E7051092DB05D5CE34
:10407000612F70E090E080E00E94A82F2DEC3CECD6
:104080004CEC5DE30E940730A70196010E94763157
:104090006B017C01B6CF262F30E0322F2227B901E9
:1040A000640F711D072E000C880B990B0E94A82F1E
:1040B0002DEC3CEC4CEC5DE30E9407306093E8058E
:1040C0007093E9058093EA059093EB05602F70E00B
:1040D000762F662766277F77610F711D072E000CEC
:1040E000880B990B0E94A82F2DEC3CEC4CEC5DEB5F
:1040F00007FD04C02DEC3CEC4CEC5DE30E94073066
:10410000C7CF862F90E0982F8827BC01C9CF63ECDA
:1041100071E08E010F5F1F4FC8010E94F11CB801B2
:10412000CE0181579F4F0E94611A3C01C8010E9435
:10413000021D62EF71E0C8010E94F11CCD56DF4FF5
:1041400088819981C359D0402D813E815C01A21A9A
:10415000B30A2115310569F1009759F182179307C8
:1041600040F1A816B90620F05C01E1E0AE1AB108F2
:10417000C157DF4F88809980CF58D04029803A803E
:10418000C401EE24EA94FE2C24014A0C5B1C481660
:10419000590690F0B1010E94AA34009769F09C0181
:1041A00028193909A216B30608F497010196790176
:1041B000EECFEE24EA94FE2CC8010E94021DFFEF10
:1041C0006F167F0609F46DC02FEFE21AF20A8FEF27
:1041D000E816F80609F465C05701E614F70410F074
:1041E0005301370168EA71E0C8010E94F11CCD5605
:1041F000DF4FE880F980C359D040AE14BF0438F5D2
:104200006E147F0408F47301C157DF4FE881F98110
:10421000CF58D040EE0DFF1D90801082C157DF4F68
:1042200068817981CF58D0406A0D7B1DC801611526
:10423000710509F4E9C10E94651CC157DF4F8881EF
:104240009981CF58D040E80EF91EF7019082C757E8
:10425000DF4F88819981C958D040009709F4D9C1AE
:1042600069817A816115710509F4D1C1C557DF4FA4
:1042700048815981CB58D0402D813E814217530748
:1042800008F4C5C10E94A3348D819E81C357DF4FBE
:1042900099838883CD58D0401E821D82C8010E9418
:1042A000021DCE018B599F4F0E94080A35E6E32E6E
:1042B000F12CEC0EFD1EFFEFEF1AFF0A4AE0BE01E3
:1042C00067577F4FC7010E94EE1967EC75E0CE017A
:1042D0008B569F4F0E94E81C6FEB72E0C8010E9452
:1042E000F11CBE016B567F4FC8010E94311C65EC6A
:1042F00071E00E941B1CBC01CE0181579F4F0E94A0
:10430000611A5C01C8010E94021DCE018B569F4FAD
:104310000E94021DB7FC50C06CEC71E0C7010E9406
:10432000581A882309F492C163ED71E0C7010E9415
:10433000581A882309F48AC16CEC71E025E6C22E74
:10434000D12CCC0EDD1E2AE0C20ED11CC6010E946B
:104350004D1A0E94F208F82EE92E63ED71E0C601B5
:104360000E944D1A0E946409D82E682F8F2D0E943A
:10437000810260E3D11061E38F2D9E2D0E94B11E5A
:104380008F2D9E2D0E94C51E282F082E000C330B4A
:104390003F938F93EF92FF928AED91E09F938F93DB
:1043A0001F9284E68F931F930F930E94C4340FB61D
:1043B000F894DEBF0FBECDBF67EC75E0CE018B5623
:1043C0009F4F0E94E81C6FEB72E0C8010E94F11C35
:1043D000BE016B567F4FC8010E94311C6AE172E03A
:1043E0000E941B1CBC01CE0181579F4F0E94611A85
:1043F0007C01C8010E94021DCE018B569F4F0E9476
:10440000021DF7FC9DC04091400450914104609111
:10441000420470914304CE0189559F4F0E949B1C1A
:1044200040914404509145046091460470914704C2
:10443000CE018F559F4F0E949B1C65E170E0CE011D
:1044400085569F4F0E946F1C62E070E0CE018B5634
:104450009F4F0E946F1C65E272E0C8010E94F11C30
:10446000BE016B567F4FC8010E94311C60E372E0B1
:104470000E941B1CBE0165567F4F0E94311C6CE3DD
:1044800072E00E941B1CBE016F557F4F0E94311CC1
:1044900065E472E00E941B1CBE0169557F4F0E94BB
:1044A000311C6DE472E00E941B1CBC01CE018D57D3
:1044B0009F4F0E94D11CC8010E94021DCE018B5645
:1044C0009F4F0E94021DCE0185569F4F0E94021DE4
:1044D000CE018F559F4F0E94021DCE0189559F4FDF
:1044E0000E94021D20E030E0A90160914404709117
:1044F000450480914604909147040E94A12F8111A8
:1045000011C020E030E0A9016091400470914104A5
:1045100080914204909143040E94A12F69E572E0CA
:10452000882311F06BE572E0CE018D579F4F0E94FA
:10453000F11B62EF71E0CE018D579F4F0E94F11B7E
:1045400068E672E0CE018C589F4F0E94F51768E72D
:1045500072E0CE018C589F4F0E94F51767E972E018
:10456000CE018C589F4F0E94F517CE018C589F4F5B
:104570000E94E017BE016D577F4FCE018C589F4FB0
:104580000E943D01CE018C589F4F0E94B00F61E008
:1045900070E080E090E00E947403CE018C589F4F41
:1045A0000E94540BCE018B599F4F0E940A1DCE01D1
:1045B0008D579F4F0E94021DCE0187579F4F0E942B
:1045C000021DCE0181579F4F0E94021D84EF94E08F
:1045D0000E94A901181619060CF03BC368EA71E0A5
:1045E000CE018F559F4F0E94F11C0E94B20397FD90
:1045F00000C18A30910509F4FCC0682FCE018F55A7
:104600009F4F0E94DE1BF1CF0E94FB1B16CE0E9423
:10461000383389819A81C757DF4F99838883C95876
:10462000D0408B819C81C557DF4F99838883CB58BD
:10463000D0408D819E81C357DF4F99838883CD58A9
:10464000D0401A8219821C821B8226CE95E6E92E62
:10465000F12CEC0EFD1E8FEFE81AF80A6CEC71E0FD
:10466000C7010E94581A811178C063EC71E0CE0135
:104670008D579F4F0E94651CC6010E94C51EF82ED3
:10468000B601CE018B569F4F0E946F1C61E172E014
:10469000C8010E94F11CBE016B567F4FC8010E94E9
:1046A000311C64E172E00E941B1C6F2D0E940D1CE6
:1046B00068E172E00E941B1CFC014481558160810D
:1046C0007181CE018D579F4F0E94B21BC8010E947D
:1046D000021DCE018B569F4F0E94021DFFEFCF1A85
:1046E000DF0A22E1C216D10439F682E190E00E948D
:1046F000C51EF82E62E170E0CE018B569F4F0E94DE
:104700006F1C61E172E0C8010E94F11CBE016B5692
:104710007F4FC8010E94311C64E172E00E941B1CA3
:104720006F2D0E940D1CFC014481558160817181B7
:10473000CE018D579F4F0E94B21BC8010E94021DDF
:10474000CE018B569F4F0E94021D62EF71E0CE0199
:104750008D579F4F0E94F11B2FCE64EF71E0C70170
:104760000E94581A882309F480CF6CEC71E085E62A
:10477000E82EF12CEC0EFD1EFAE0EF0EF11CC70145
:104780000E944D1A0E94F2086C0164EF71E0C701AB
:104790000E944D1AC6010E94C51EF82EB601CE0118
:1047A0008B569F4F0E946F1C6BEF71E0C8010E94F7
:1047B000F11CBE016B567F4FC8010E94311C66E0A0
:1047C00072E00E941B1C6F2D0E940D1C62EF71E0B5
:1047D0000E941B1CBC01CE018D579F4F0E94D11C13
:1047E000C8010E94021DCE018B569F4F0E94021DE0
:1047F000E3CDCE0101960E94080A4AE0BE016F5542
:104800007F4FCE0102960E94EE196CEC71E0CE0152
:1048100002960E94581A882309F41EC163ED71E0C4
:10482000CE0102960E94581A882309F415C16CEC37
:1048300071E0CE010B960E944D1A0E94F208182FCB
:10484000092F63ED71E0CE010B960E944D1A0E9474
:104850006409F82E682F812F0E94810260E3F11015
:1048600061E3812F902F0E94B11E812F902F0E9413
:10487000C51EF82E612F702FCE018D579F4F0E94BD
:104880006F1C6BEF71E0CE018B599F4F0E94F11CA2
:10489000BE016D577F4FCE018B599F4F0E94311C37
:1048A00066E072E00E941B1C6F2D0E940D1C62EFDF
:1048B00071E00E941B1CBC01CE0187579F4F0E94D4
:1048C000E81CCE018B599F4F0E94021DCE018D57CF
:1048D0009F4F0E94021DCE0187579F4F0E94E417F1
:1048E000CE0187579F4F0E94021D65E673E0CE01FF
:1048F00002960E94581A882309F4A2C140914004EC
:10490000509141046091420470914304CE018B5652
:104910009F4F0E949B1C409144045091450460911C
:10492000460470914704CE0181579F4F0E949B1C03
:1049300065E170E0CE0187579F4F0E946F1C62E0D7
:1049400070E0CE018D579F4F0E946F1C65E272E0B0
:10495000CE018B599F4F0E94F11CBE016D577F4FB6
:10496000CE018B599F4F0E94311C60E372E00E9480
:104970001B1CBE0167577F4F0E94311C6CE372E025
:104980000E941B1CBE0161577F4F0E94311C65E4D1
:1049900072E00E941B1CBE016B567F4F0E94311CAF
:1049A0006DE472E00E941B1CBC01CE0185569F4F36
:1049B0000E94E81CCE018B599F4F0E94021DCE0120
:1049C0008D579F4F0E94021DCE0187579F4F0E9417
:1049D000021DCE0181579F4F0E94021DCE018B56B2
:1049E0009F4F0E94021D20E030E0A9016091440425
:1049F0007091450480914604909147040E94A12F34
:104A0000811111C020E030E0A90160914004709153
:104A1000410480914204909143040E94A12F69E5D2
:104A200072E0882311F06BE572E0CE0185569F4F4E
:104A30000E94F11B62EF71E0CE0185569F4F0E94EC
:104A4000F11BCE0185569F4F0E94E417CE0185567B
:104A50009F4F0E94021DF4C06CEC71E0CE010296E3
:104A60000E94581A811161C06DE374E0CE01029674
:104A70000E94581A81117CC069EA72E0CE01029648
:104A80000E94581A882309F493C068EA71E0CE01A5
:104A90008B599F4F0E94F11C10E000E0C8010E945A
:104AA000C51E682FCE018B599F4F0E94DE1B0F5FE2
:104AB0001F4F0431110591F784EF94E00E94E01735
:104AC0008DEA92E00E94DB178FEB94E00E94DB17E7
:104AD0008FEB92E00E94DB1767EC75E084EF94E0C7
:104AE0000E943D0165EC71E084EF94E00E94F517AF
:104AF00081EC92E00E94DB178FEB94E00E94DB17C1
:104B00008FEB92E00E94DB1767EC75E084EF94E096
:104B10000E943D016AE172E084EF94E00E94F51783
:104B200084ED92E00E94DB173AC064EF71E0CE01A1
:104B300002960E94581A882309F496CF6CEC71E013
:104B4000CE010B960E944D1A0E94F2088C0164EF70
:104B500071E0CE010B960E944D1A0E9464098823D1
:104B600009F46EC0C8010E94C51EF82EB80184CE9B
:104B700068EA71E0CE018B599F4F0E94F11C10E052
:104B800000E0C8010E94C51E682FCE018B599F4FBF
:104B90000E94DE1B0F5F1F4F0431110591F7CE01FC
:104BA0008B599F4F0E94E417CE018B599F4F9BCE8C
:104BB0006EED72E0CE0102960E94581A882311F120
:104BC0006EED72E0CE010B960E944D1A0E946409B0
:104BD0008823B1F110E000E060E3C8010E94CD300D
:104BE0000F5F1F4F04311105B9F768EE72E084EFD3
:104BF00094E00E94F51767E173E084EF94E00E946F
:104C0000F51773CE67E373E0CE0102960E94581A3F
:104C1000882319F06BE373E0F0CF6FE573E0CE010A
:104C200002960E94581A882309F45FCE6FE573E05C
:104C3000CE010B960E944D1A0E946409811155CE37
:104C4000CE0101960E940A1DCE018F559F4F0E94F2
:104C5000021DC455DF4F0FB6F894DEBF0FBECDBFA7
:104C6000DF91CF911F910F91FF90EF90DF90CF9048
:104C7000BF90AF909F908F907F906F905F904F907C
:104C80003F902F9008951F920F920FB60F9211240C
:104C90002F933F934F935F936F937F938F939F9344
:104CA000AF93BF93EF93FF9384EF94E00E94C90109
:104CB000FF91EF91BF91AF919F918F917F916F91F4
:104CC0005F914F913F912F910F900FBE0F901F90CA
:104CD00018951F920F920FB60F9211242F938F9356
:104CE0009F93EF93FF93E0910405F0910505808178
:104CF000E0910A05F0910B0582FD1BC09081809127
:104D00000D058F5F8F7320910E05821741F0E091A2
:104D10000D05F0E0EC50FB4F958F80930D05FF9152
:104D2000EF919F918F912F910F900FBE0F901F9039
:104D300018958081F4CF1F920F920FB60F92112415
:104D40002F933F938F939F93AF93BF938091490489
:104D500090914A04A0914B04B0914C0430914804C6
:104D600023E0230F2D3758F50196A11DB11D209387
:104D700048048093490490934A04A0934B04B09351
:104D80004C0480914D0490914E04A0914F04B09139
:104D900050040196A11DB11D80934D0490934E04C3
:104DA000A0934F04B0935004BF91AF919F918F9106
:104DB0003F912F910F900FBE0F901F90189526E8EE
:104DC000230F0296A11DB11DD2CFE4EFF4E01382B0
:104DD000128288EE93E0A0E0B0E084839583A683FE
:104DE000B78384E791E09183808385EC90E0958799
:104DF000848784EC90E09787868780EC90E0918BA5
:104E0000808B81EC90E0938B828B82EC90E0958B91
:104E1000848B86EC90E0978B868B118E128E138E8E
:104E2000148EE1E9F5E086E891E0918380831282B7
:104E3000138214821582E7E9F5E091838083128260
:104E4000138214821582EDE9F5E09183808312824A
:104E5000138214821582E3EAF5E091838083128243
:104E6000138214821582E9EAF5E09183808312822D
:104E7000138214821582E5EBF5E091838083128220
:104E8000138214821582EFEAF5E091838083128207
:104E9000138214821582EBEBF5E0918380831282FA
:104EA000138214821582E1ECF5E0918380831282F3
:104EB000138214821582ECEEF5E0918380831282D6
:104EC000138214821582E9EDF5E022E0208325E1CA
:104ED0002183E3EDF5E09183808380EC828388EA8F
:104EE000838384E6848382ED8583EDECF5E0138291
:104EF00012828CE891E09183808380E590E0958335
:104F0000848368EA71E087EC95E00C94F11CCF9300
:104F1000DF93CDB7DEB76F970FB6F894DEBF0FBE45
:104F2000CDBF789484B5826084BD84B5816084BD32
:104F300085B5826085BD85B5816085BD80916E0037
:104F4000816080936E001092810080918100826068
:104F500080938100809181008160809381008091A5
:104F600080008160809380008091B1008460809394
:104F7000B1008091B00081608093B00080917A0090
:104F8000846080937A0080917A00826080937A00B6
:104F900080917A00816080937A0080917A008068A5
:104FA00080937A001092C1008091B70481112AC0C9
:104FB00010929F0410929E0488EE93E0A0E0B0E06F
:104FC0008093A0049093A104A093A204B093A3049F
:104FD00084E491E090939D0480939C0486E891E0A2
:104FE0009093AB048093AA041092AC041092AD0489
:104FF0001092AE041092AF0484E08093B40481E078
:105000008093B70489E594E0909358048093570403
:10501000809156048111ADC060E372E080E090E0C1
:105020000E947403DFB6F8940AEB11E0EEECEE2E6A
:10503000E1E0FE2E80915404811125C0F801849195
:10504000F7019491E82FF0E0EE0FFF1FE456FE4FBA
:10505000A591B4918C91982321F461E08AE00E949B
:10506000810261E08AE00E94AF028CB580618CBD54
:105070008CB580648CBD61E08DE00E94AF0261E080
:105080008BE00E94AF02809154048F5F80935404A0
:10509000DFBEF8010491E02FF0E0EE0FFF1FEE56A7
:1050A000FE4F859194919093530480935204F7019D
:1050B000E490E092510461E08AE00E94AF020E9415
:1050C000FE0380E591E00E94220184E38093F304D3
:1050D00080E80E94CA040E94D10B882309F484C18D
:1050E00088E00E94CA040E94BE0B883009F07CC18F
:1050F00080E10E94CA040E94BE0B803109F074C195
:1051000080E00E94CA040E94BE0B182F81116CC15E
:1051100041E050E0BE016F5F7F4F8FE190E00E9461
:10512000230A8981833009F05FC180E480935504AC
:1051300042E06EE170E0812F0E94260542E06FE1BF
:1051400070E0812F0E9426051F5F143089F740E030
:105150006EE170E0812F0E94260540E06FE170E073
:10516000812F0E9426051F5F183089F781E0809308
:10517000560480E591E00E94220146E050E06AE694
:1051800071E089E090E00E941A0486E891E09A8339
:1051900089831B821C821D821E8244E050E0BE0176
:1051A0006D5F7F4F8FE090E00E941A0400915704DA
:1051B00010915804D80192961D921D921D921C9236
:1051C0009597F80116A217A210A611A69A961D92FD
:1051D0001D921D921C929D9780E69AEEA0E0B0E091
:1051E00086AB97ABA0AFB1AF80EA9FE0A0E0B0E0A4
:1051F00082AF93AFA4AFB5AF3E9684E1DF011D92BD
:105200008A95E9F786E0EAE6F1E0D8011896019080
:105210000D928A95E1F7F801EE5BFF4FFF8FEE8F5D
:1052200010820E94DD2C2FEC37E040E050E00E941D
:10523000DB30DC01CB010196A11DB11DF801848397
:105240009583A683B78380839183A283B383580118
:10525000F3E4AF0EB11CC5010E94F30A64E470E0F0
:10526000C5010E948C0E882309F427C10E94A60361
:105270002B013C0148EEC42E43E0D42EE12CF12C4E
:1052800052E0252E912C812CAE8DBF8D8C918330D8
:10529000B9F18111B7C1F80184819581A681B781E7
:1052A0000196A11DB11D84839583A683B7830E94B7
:1052B000A6036419750986099709A70196010E943A
:1052C0004431A90161E0C8010E947C1A81E0AE8DE1
:1052D000BF8D8C93F1E08F169104B1F20E94A6036A
:1052E0006419750986099709D801D6962D913D91C3
:1052F0004D915C91D997261737074807590710F643
:10530000C5010E94F30AF80184819581A681B781C5
:105310000196A11DB11D84839583A683B7830E9446
:10532000A603F801FE9660837183828393838A9437
:10533000892809F0C2C080E591E00E942201009115
:10534000570410915804B801625F7F4FCE01019657
:105350000E94331344E050E0BE016D5F7F4F8FE049
:1053600090E00E941A04B8016A5E7F4FCE01019658
:105370000E94331344E050E0BE016D5F7F4F81E037
:1053800090E00E941A04B8016E5E7F4FCE01019634
:105390000E94331344E050E0BE016D5F7F4F85E013
:1053A00090E00E941A04B801625E7F4FCE01019620
:1053B0000E9433138B819C81AD81BE818093B105A6
:1053C0009093B205A093B305B093B4050E94E00298
:1053D0007F73809100019091010168277927709374
:1053E00001016093000169C087E38093F30480E8C2
:1053F0000E94CA040E94D10B882329F188E00E94F0
:10540000CA040E94BE0B8830F1F480E10E94CA04F5
:105410000E94BE0B182F8031B1F480E00E94CA04B4
:105420000E94BE0B81110FC041E050E0BE016F5FD2
:105430007F4F89E390E00E94230A8981843019F428
:105440001093550493CE83E38093F30480E80E9485
:10545000CA040E94D10B882371F180E10E94CA0422
:105460000E94BE0B803139F582E10E94CA040E947D
:10547000BE0B823101F580E00E94CA040E94BE0B7F
:10548000811119C084E08093550415E51D8F41E01A
:1054900050E0BE01635E7F4F8BE190E00E941A04F2
:1054A0001C8F41E050E0BE01645E7F4F8AE190E0D6
:1054B0000E941A045BCE1092F304E0910405F0916F
:1054C000050582E08083E0910005F09101051082DE
:1054D000E0910205F091030580E1808310920C05B4
:1054E000E0910805F091090586E08083E0910605CA
:1054F000F0910705808180618083E0910605F0913D
:105500000705808188608083E0910605F09107059A
:10551000808180688083E0910605F0910705808195
:105520008F7D80838DEC95E00E94B10E86E891E03E
:105530009F8B8E8B188E198E1A8E1B8E80E591E0B4
:105540000E94220144E050E0BE01685E7F4F8FE080
:1055500090E00E94230A8B8D1F928F938A8D1F9259
:105560008F93898D1F928F93888D1F928F9389E6D9
:1055700093E09F938F938FEB94E09F938F930E9480
:10558000F43480E591E00E94220146E050E0BE0143
:10559000605F7F4F89E090E00E94230A8E01005FE8
:1055A0001F4F7E0186E1E80EF11C0FB6F894DEBFB6
:1055B0000FBECDBFE016F10609F4EFC0F8018191EE
:1055C0008F011B861A861D861C861F861E8640E15B
:1055D000BE016F5F7F4F90E00E94402DBE016F5F64
:1055E0007F4FCE010A960E94651C4E855F856A85B5
:1055F0007B8587EC95E00E94B21BCE010A960E9443
:10560000021DD8CF8430F9F4F80184819581A681F8
:10561000B7810196A11DB11D84839583A683B783AD
:105620000E94A6036419750986099709A7019601C6
:105630000E944431A90163E0C8010E947C1AAE8D2A
:10564000BF8D2C9247CE813059F5F80142AD53AD54
:1056500064AD75AD9E012F5F3F4FC8010E94121DC2
:10566000382EF2E08F1392C089819A81AB81BC8180
:10567000F80184839583A683B7830E94A6036419E7
:10568000750986099709A70196010E944431A9016D
:1056900063E0C8010E947C1AAE8DBF8D3C921ACE89
:1056A000823009F017CEF80142AD53AD64AD75AD4F
:1056B0009E012F5F3F4FC8010E94121D382EF5E05A
:1056C0008F135DC0E3E0AE8DBF8DEC93F80182A136
:1056D00093A1A4A1B5A1892B8A2B8B2B41F484E83B
:1056E00093E0A0E0B0E082A393A3A4A3B5A3F80144
:1056F00086A197A1A0A5B1A5892B8A2B8B2B61F43C
:1057000082A193A1A4A1B5A1B695A79597958795D8
:1057100086A397A3A0A7B1A7F80182A593A5A4A5E6
:10572000B5A5892B8A2B8B2BA9F482A193A1A4A1C7
:10573000B5A1AC01BD0123E07695679557954795D6
:105740002A95D1F7841B950BA60BB70B82A793A7BD
:10575000A4A7B5A7F80186A197A1A0A5B1A586A782
:1057600097A7A0ABB1AB82A593A5A4A5B5A582AB25
:1057700093ABA4ABB5AB88248394912CABCDF6E06E
:105780008F1304C0AE8DBF8D1C92A4CDBFEF3B1212
:10579000A1CDEE8DFF8D10829DCD0091C70510919A
:1057A000C8050115110571F0D8018D918D0188236F
:1057B00049F0082E000C990B0E947E34F8013197B5
:1057C0008083F2CF84EF94E00E94E01765E773E0F6
:1057D00084EF94E00E94F51786EA93E00E94DB17BD
:1057E00063EB73E084EF94E00E94F5176AEC73E0DA
:1057F00084EF94E00E94F51766E074E084EF94E093
:105800000E94F51784EF94E00E94E0178DEA92E081
:105810000E94DB178FEB94E00E94DB178FEB92E086
:105820000E94DB1767EC75E084EF94E00E943D0175
:1058300065EC71E084EF94E00E94F51781EC92E052
:105840000E94DB178FEB94E00E94DB178FEB92E056
:105850000E94DB1767EC75E084EF94E00E943D0145
:105860006AE172E084EF94E00E94F51784EF94E01F
:105870000E94E01764E374E084EF94E00E94F5175F
:1058800015E061E0812F0E94AF021F5F1431C9F75C
:1058900005E010E0C8010E94C51E813321F461E0DB
:1058A000802F0E948102C8010E94C51E803321F40E
:1058B00060E0802F0E9481020F5F1F4F04311105AD
:1058C00049F700E010E00E94C71E01151105D9F349
:1058D0000E94B5018823B9F30E940000F4CF87EC41
:1058E00095E00C94021DEF920F931F93CF93DF93DB
:1058F000E80134E047FD34E1042E000C550B57FF5E
:1059000003C0519541955109E32E022F242FAE017A
:105910000E945A2DCE01DF91CF911F910F91EF90F0
:1059200008958F929F92AF92BF92CF92DF92EF92A3
:10593000FF92CF93DF93EC01688179818A819B810B
:10594000611571058105910521F464E279ED8BE51E
:1059500097E02DE133EF41E050E00E94DB30490158
:105960005A019B01AC01A7EAB1E40E94FA306B0135
:105970007C01ACEEB4EFA50194010E940831C60E83
:10598000D71EE81EF91EF7FE06C081E0C81AD1082E
:10599000E10880E8F80AC882D982EA82FB82C7015E
:1059A000B6019F77DF91CF91FF90EF90DF90CF907E
:1059B000BF90AF909F908F9008958F929F92AF92DB
:1059C000BF92CF92DF92EF92FF92609102017091AD
:1059D0000301809104019091050161157105810514
:1059E000910521F464E279ED8BE597E02DE133EF49
:1059F00041E050E00E94DB3049015A019B01AC01BB
:105A0000A7EAB1E40E94FA306B017C01ACEEB4EF7E
:105A1000A50194010E940831C60ED71EE81EF91E8A
:105A2000F7FE06C081E0C81AD108E10880E8F80A4C
:105A3000C0920201D0920301E0920401F0920501AC
:105A4000C701B6019F77FF90EF90DF90CF90BF9096
:105A5000AF909F908F90089560930201709303011F
:105A600080930401909305010895BB274A3031F4D7
:105A7000992322F4BDE2909581959F4F0C94412D7E
:105A8000BB27FB015527AA27880F991FAA1FA41718
:105A900010F0A41B83955051B9F7A05DAA3308F00C
:105AA000A95DA193009779F7B111B1931192CB0140
:105AB0000C94912FA9E0B0E0E0E6FDE20C941331E4
:105AC0006A01F22EB02E102FFBE3AF2EA01608F4C1
:105AD0001BE31F5F012F27E0AE014F5F5F4F0E9466
